{
  "_format": "hh-sol-artifact-1",
  "contractName": "TokenExchange",
  "sourceName": "contracts/exchange.sol",
  "abi": [
    {
      "inputs": [],
      "stateMutability": "nonpayable",
      "type": "constructor"
    },
    {
      "inputs": [
        {
          "internalType": "address",
          "name": "owner",
          "type": "address"
        }
      ],
      "name": "OwnableInvalidOwner",
      "type": "error"
    },
    {
      "inputs": [
        {
          "internalType": "address",
          "name": "account",
          "type": "address"
        }
      ],
      "name": "OwnableUnauthorizedAccount",
      "type": "error"
    },
    {
      "anonymous": false,
      "inputs": [
        {
          "indexed": true,
          "internalType": "address",
          "name": "previousOwner",
          "type": "address"
        },
        {
          "indexed": true,
          "internalType": "address",
          "name": "newOwner",
          "type": "address"
        }
      ],
      "name": "OwnershipTransferred",
      "type": "event"
    },
    {
      "inputs": [
        {
          "internalType": "uint256",
          "name": "amountToken",
          "type": "uint256"
        }
      ],
      "name": "addLiquidity",
      "outputs": [],
      "stateMutability": "payable",
      "type": "function"
    },
    {
      "inputs": [
        {
          "internalType": "uint256",
          "name": "amountTokens",
          "type": "uint256"
        }
      ],
      "name": "createPool",
      "outputs": [],
      "stateMutability": "payable",
      "type": "function"
    },
    {
      "inputs": [],
      "name": "exchange_name",
      "outputs": [
        {
          "internalType": "string",
          "name": "",
          "type": "string"
        }
      ],
      "stateMutability": "view",
      "type": "function"
    },
    {
      "inputs": [],
      "name": "getFeeReserves",
      "outputs": [
        {
          "internalType": "uint256",
          "name": "",
          "type": "uint256"
        },
        {
          "internalType": "uint256",
          "name": "",
          "type": "uint256"
        }
      ],
      "stateMutability": "view",
      "type": "function"
    },
    {
      "inputs": [],
      "name": "getReserves",
      "outputs": [
        {
          "internalType": "uint256",
          "name": "",
          "type": "uint256"
        },
        {
          "internalType": "uint256",
          "name": "",
          "type": "uint256"
        }
      ],
      "stateMutability": "view",
      "type": "function"
    },
    {
      "inputs": [],
      "name": "getSwapFee",
      "outputs": [
        {
          "internalType": "uint256",
          "name": "",
          "type": "uint256"
        },
        {
          "internalType": "uint256",
          "name": "",
          "type": "uint256"
        }
      ],
      "stateMutability": "view",
      "type": "function"
    },
    {
      "inputs": [
        {
          "internalType": "uint256",
          "name": "",
          "type": "uint256"
        }
      ],
      "name": "lp_providers",
      "outputs": [
        {
          "internalType": "address",
          "name": "",
          "type": "address"
        }
      ],
      "stateMutability": "view",
      "type": "function"
    },
    {
      "inputs": [
        {
          "internalType": "address",
          "name": "",
          "type": "address"
        }
      ],
      "name": "lp_reward",
      "outputs": [
        {
          "internalType": "uint256",
          "name": "eth_reward",
          "type": "uint256"
        },
        {
          "internalType": "uint256",
          "name": "token_reward",
          "type": "uint256"
        }
      ],
      "stateMutability": "view",
      "type": "function"
    },
    {
      "inputs": [
        {
          "internalType": "address",
          "name": "",
          "type": "address"
        }
      ],
      "name": "lps",
      "outputs": [
        {
          "internalType": "uint256",
          "name": "",
          "type": "uint256"
        }
      ],
      "stateMutability": "view",
      "type": "function"
    },
    {
      "inputs": [],
      "name": "owner",
      "outputs": [
        {
          "internalType": "address",
          "name": "",
          "type": "address"
        }
      ],
      "stateMutability": "view",
      "type": "function"
    },
    {
      "inputs": [],
      "name": "removeAllLiquidity",
      "outputs": [],
      "stateMutability": "payable",
      "type": "function"
    },
    {
      "inputs": [
        {
          "internalType": "uint256",
          "name": "withdrawLiquidity",
          "type": "uint256"
        }
      ],
      "name": "removeLiquidity",
      "outputs": [],
      "stateMutability": "payable",
      "type": "function"
    },
    {
      "inputs": [],
      "name": "renounceOwnership",
      "outputs": [],
      "stateMutability": "nonpayable",
      "type": "function"
    },
    {
      "inputs": [
        {
          "internalType": "uint256",
          "name": "amountTokenMin",
          "type": "uint256"
        }
      ],
      "name": "swapETHForTokens",
      "outputs": [],
      "stateMutability": "payable",
      "type": "function"
    },
    {
      "inputs": [
        {
          "internalType": "uint256",
          "name": "amountTokens",
          "type": "uint256"
        },
        {
          "internalType": "uint256",
          "name": "amountETHMin",
          "type": "uint256"
        }
      ],
      "name": "swapTokensForETH",
      "outputs": [],
      "stateMutability": "payable",
      "type": "function"
    },
    {
      "inputs": [],
      "name": "token",
      "outputs": [
        {
          "internalType": "contract Token",
          "name": "",
          "type": "address"
        }
      ],
      "stateMutability": "view",
      "type": "function"
    },
    {
      "inputs": [],
      "name": "total_shares",
      "outputs": [
        {
          "internalType": "uint256",
          "name": "",
          "type": "uint256"
        }
      ],
      "stateMutability": "view",
      "type": "function"
    },
    {
      "inputs": [
        {
          "internalType": "address",
          "name": "newOwner",
          "type": "address"
        }
      ],
      "name": "transferOwnership",
      "outputs": [],
      "stateMutability": "nonpayable",
      "type": "function"
    }
  ],
  "bytecode": "0x60a0604052600060809081526001906200001a9082620001b7565b506002805473132a0153251d865942d8001998396738fffddba46001600160a01b0319918216811790925560038054909116909117815560006004819055600581905560068190556007819055600b55600c556064600d556402540be400600f553480156200008857600080fd5b503380620000b057604051631e4fbdf760e01b81526000600482015260240160405180910390fd5b620000bb81620000c2565b5062000283565b600080546001600160a01b038381166001600160a01b0319831681178455604051919092169283917f8be0079c531659141344cd1fd0a4f28419497f9722a3daafe3b4186f6b6457e09190a35050565b634e487b7160e01b600052604160045260246000fd5b600181811c908216806200013d57607f821691505b6020821081036200015e57634e487b7160e01b600052602260045260246000fd5b50919050565b601f821115620001b257600081815260208120601f850160051c810160208610156200018d5750805b601f850160051c820191505b81811015620001ae5782815560010162000199565b5050505b505050565b81516001600160401b03811115620001d357620001d362000112565b620001eb81620001e4845462000128565b8462000164565b602080601f8311600181146200022357600084156200020a5750858301515b600019600386901b1c1916600185901b178555620001ae565b600085815260208120601f198616915b82811015620002545788860151825594840194600190910190840162000233565b5085821015620002735787850151600019600388901b60f8161c191681555b5050505050600190811b01905550565b6116d480620002936000396000f3fe6080604052600436106101095760003560e01c80638da5cb5b11610095578063d12e733211610064578063d12e73321461027c578063d4cadf68146102a9578063f2fde38b146102c1578063f694f7d1146102e1578063fc0c546a1461030357600080fd5b80638da5cb5b146102045780639c8f9f2314610236578063a22280a614610249578063bc53cea11461025c57600080fd5b8063715018a6116100dc578063715018a61461017c5780637678c0381461019157806378bb3928146101b55780638259e6a0146101e957806388a780e5146101fc57600080fd5b80630541de381461010e5780630902f1ac1461013c5780632eab28411461015457806351c6590a14610169575b600080fd5b34801561011a57600080fd5b506007546006545b604080519283526020830191909152015b60405180910390f35b34801561014857600080fd5b50600554600454610122565b6101676101623660046114b0565b610323565b005b6101676101773660046114b0565b610542565b34801561018857600080fd5b5061016761077a565b34801561019d57600080fd5b506101a7600b5481565b604051908152602001610133565b3480156101c157600080fd5b506101226101d03660046114c9565b6009602052600090815260409020805460019091015482565b6101676101f73660046114b0565b61078e565b610167610ac4565b34801561021057600080fd5b506000546001600160a01b03165b6040516001600160a01b039091168152602001610133565b6101676102443660046114b0565b610b4a565b6101676102573660046114f9565b610e12565b34801561026857600080fd5b5061021e6102773660046114b0565b611052565b34801561028857600080fd5b506101a76102973660046114c9565b60086020526000908152604090205481565b3480156102b557600080fd5b50600c54600d54610122565b3480156102cd57600080fd5b506101676102dc3660046114c9565b61107c565b3480156102ed57600080fd5b506102f66110ba565b604051610133919061151b565b34801561030f57600080fd5b5060035461021e906001600160a01b031681565b60045460055434801580159061033857508181105b61037d5760405162461bcd60e51b815260206004820152601160248201527024b73b30b634b21020b6b7bab73a1024b760791b60448201526064015b60405180910390fd5b600060045411801561039157506000600554115b6103d55760405162461bcd60e51b8152602060048201526015602482015274496e73756666696369656e7420726573657276657360581b6044820152606401610374565b6000600d54600c54836103e8919061157f565b6103f2919061159c565b9050600061040082846115be565b9050600061040e868361157f565b9050600061041c86846115d1565b9050600061042a828461159c565b905088811015801561043b57508781105b61047c5760405162461bcd60e51b815260206004820152601260248201527124b739bab33334b1b4b2b73a102a37b5b2b760711b6044820152606401610374565b61048684886115d1565b60055561049381896115be565b60048190556005546104a49161157f565b600e8190555084600760008282546104bc91906115d1565b909155505060035460405163a9059cbb60e01b8152336004820152602481018390526001600160a01b039091169063a9059cbb906044016020604051808303816000875af1158015610512573d6000803e3d6000fd5b505050506040513d601f19601f8201168201806040525081019061053691906115e4565b50505050505050505050565b600060055411801561055657506000600454115b6105ae5760405162461bcd60e51b8152602060048201526024808201527f45746820616e6420546f6b656e207265736572766573206d757374206265206e60448201526306f7420360e41b6064820152608401610374565b600034116105f25760405162461bcd60e51b8152602060048201526011602482015270496e76616c6964204574682056616c756560781b6044820152606401610374565b600554600454349190600082610608838661157f565b610612919061159c565b90508481111561065a5760405162461bcd60e51b8152602060048201526013602482015272496e76616c696420546f6b656e2056616c756560681b6044820152606401610374565b610662611148565b6003546040516323b872dd60e01b8152336004820152306024820152604481018390526001600160a01b03909116906323b872dd906064016020604051808303816000875af11580156106b9573d6000803e3d6000fd5b505050506040513d601f19601f820116820180604052508101906106dd91906115e4565b5060008282600b546106ef919061157f565b6106f9919061159c565b9050846005600082825461070d91906115d1565b92505081905550816004600082825461072691906115d1565b9250508190555080600b600082825461073f91906115d1565b909155505033600090815260086020526040812080548392906107639084906115d1565b90915550610772905033611269565b505050505050565b610782611319565b61078c6000611346565b565b610796611319565b600454156107e65760405162461bcd60e51b815260206004820152601860248201527f546f6b656e20726573657276657320776173206e6f74203000000000000000006044820152606401610374565b600554156108365760405162461bcd60e51b815260206004820152601760248201527f45544820726573657276657320776173206e6f7420302e0000000000000000006044820152606401610374565b600034116108865760405162461bcd60e51b815260206004820152601860248201527f4e6565642065746820746f2063726561746520706f6f6c2e00000000000000006044820152606401610374565b6003546040516370a0823160e01b81523360048201526000916001600160a01b0316906370a0823190602401602060405180830381865afa1580156108cf573d6000803e3d6000fd5b505050506040513d601f19601f820116820180604052508101906108f39190611606565b9050808211156109575760405162461bcd60e51b815260206004820152602960248201527f4e6f74206861766520656e6f75676820746f6b656e7320746f20637265617465604482015268081d1a19481c1bdbdb60ba1b6064820152608401610374565b600082116109a75760405162461bcd60e51b815260206004820152601b60248201527f4e65656420746f6b656e7320746f2063726561746520706f6f6c2e00000000006044820152606401610374565b6003546040516323b872dd60e01b8152336004820152306024820152604481018490526001600160a01b03909116906323b872dd906064016020604051808303816000875af11580156109fe573d6000803e3d6000fd5b505050506040513d601f19601f82011682018060405250810190610a2291906115e4565b506003546040516370a0823160e01b81523060048201526001600160a01b03909116906370a0823190602401602060405180830381865afa158015610a6b573d6000803e3d6000fd5b505050506040513d601f19601f82011682018060405250810190610a8f9190611606565b6004819055346005819055610aa39161157f565b600e555050620186a0600b5533600090815260086020526040902060649055565b33600081815260086020526040812054600a54909190815b81811015610b3157846001600160a01b0316600a8281548110610b0157610b0161161f565b6000918252602090912001546001600160a01b031603610b1f578092505b80610b2981611635565b915050610adc565b50610b3b83610b4a565b610b4482611396565b50505050565b33600081815260086020526040902054600b546005546004548515801590610b725750838611155b8015610b7d57508284105b610bc95760405162461bcd60e51b815260206004820152601860248201527f496e76616c696420416d6f756e74204c697175696469747900000000000000006044820152606401610374565b610bd1611148565b600083610bde888561157f565b610be8919061159c565b9050600084610bf7898561157f565b610c01919061159c565b6001600160a01b038816600090815260096020526040812054919250908790610c2b908b9061157f565b610c35919061159c565b6001600160a01b038916600090815260096020526040812060010154919250908890610c62908c9061157f565b610c6c919061159c565b90508360056000828254610c8091906115be565b925050819055508260046000828254610c9991906115be565b90915550506001600160a01b03891660009081526009602052604081208054849290610cc69084906115be565b90915550506001600160a01b03891660009081526009602052604081206001018054839290610cf69084906115be565b90915550506001600160a01b038916600090815260086020526040812080548c9290610d239084906115be565b9250508190555089600b6000828254610d3c91906115be565b9091555060009050610d4e84836115d1565b90506000610d5c86856115d1565b60035460405163a9059cbb60e01b81526001600160a01b038e811660048301526024820186905292935091169063a9059cbb906044016020604051808303816000875af1158015610db1573d6000803e3d6000fd5b505050506040513d601f19601f82011682018060405250810190610dd591906115e4565b50604051339082156108fc029083906000818181858888f19350505050158015610e03573d6000803e3d6000fd5b50505050505050505050505050565b6004546005548315801590610e2657508184105b610e665760405162461bcd60e51b815260206004820152601160248201527024b73b30b634b21020b6b7bab73a1024b760791b6044820152606401610374565b6000600454118015610e7a57506000600554115b610ebe5760405162461bcd60e51b8152602060048201526015602482015274496e73756666696369656e7420726573657276657360581b6044820152606401610374565b6000600d54600c5486610ed1919061157f565b610edb919061159c565b90506000610ee982876115be565b90506000610ef7848361157f565b90506000610f0583876115d1565b90506000610f13828461159c565b9050878110158015610f2457508581105b610f635760405162461bcd60e51b815260206004820152601060248201526f092dce6eaccccd2c6d2cadce8408aa8960831b6044820152606401610374565b610f6d84886115d1565b600455610f7a81876115be565b6005819055600454610f8c919061157f565b600e819055508460066000828254610fa491906115d1565b90915550506003546040516323b872dd60e01b8152336004820152306024820152604481018b90526001600160a01b03909116906323b872dd906064016020604051808303816000875af1158015611000573d6000803e3d6000fd5b505050506040513d601f19601f8201168201806040525081019061102491906115e4565b50604051339082156108fc029083906000818181858888f19350505050158015610536573d6000803e3d6000fd5b600a818154811061106257600080fd5b6000918252602090912001546001600160a01b0316905081565b611084611319565b6001600160a01b0381166110ae57604051631e4fbdf760e01b815260006004820152602401610374565b6110b781611346565b50565b600180546110c79061164e565b80601f01602080910402602001604051908101604052809291908181526020018280546110f39061164e565b80156111405780601f1061111557610100808354040283529160200191611140565b820191906000526020600020905b81548152906001019060200180831161112357829003601f168201915b505050505081565b600b54600a54600654600754811515806111625750600081115b15610b445760005b83811015611258576000600a82815481106111875761118761161f565b60009182526020808320909101546001600160a01b03168083526008909152604082205490925090876111ba838761157f565b6111c4919061159c565b90506000886111d3848961157f565b6111dd919061159c565b6001600160a01b03851660009081526009602052604081208054929350849290919061120a9084906115d1565b90915550506001600160a01b0384166000908152600960205260408120600101805483929061123a9084906115d1565b9250508190555050505050808061125090611635565b91505061116a565b506000600681905560075550505050565b600a5460005b818110156112c557826001600160a01b0316600a82815481106112945761129461161f565b6000918252602090912001546001600160a01b0316036112b357505050565b806112bd81611635565b91505061126f565b5050600a80546001810182556000919091527fc65a7bb8d6351c1cf70c95a316cc6a92839c986682d98bc35f958f4883f9d2a80180546001600160a01b0319166001600160a01b0392909216919091179055565b6000546001600160a01b0316331461078c5760405163118cdaa760e01b8152336004820152602401610374565b600080546001600160a01b038381166001600160a01b0319831681178455604051919092169283917f8be0079c531659141344cd1fd0a4f28419497f9722a3daafe3b4186f6b6457e09190a35050565b600a5481106114005760405162461bcd60e51b815260206004820152603060248201527f73706563696669656420696e646578206973206c6172676572207468616e207460448201526f6865206e756d626572206f66206c707360801b6064820152608401610374565b600a8054611410906001906115be565b815481106114205761142061161f565b600091825260209091200154600a80546001600160a01b03909216918390811061144c5761144c61161f565b9060005260206000200160006101000a8154816001600160a01b0302191690836001600160a01b03160217905550600a80548061148b5761148b611688565b600082815260209020810160001990810180546001600160a01b031916905501905550565b6000602082840312156114c257600080fd5b5035919050565b6000602082840312156114db57600080fd5b81356001600160a01b03811681146114f257600080fd5b9392505050565b6000806040838503121561150c57600080fd5b50508035926020909101359150565b600060208083528351808285015260005b818110156115485785810183015185820160400152820161152c565b506000604082860101526040601f19601f8301168501019250505092915050565b634e487b7160e01b600052601160045260246000fd5b808202811582820484141761159657611596611569565b92915050565b6000826115b957634e487b7160e01b600052601260045260246000fd5b500490565b8181038181111561159657611596611569565b8082018082111561159657611596611569565b6000602082840312156115f657600080fd5b815180151581146114f257600080fd5b60006020828403121561161857600080fd5b5051919050565b634e487b7160e01b600052603260045260246000fd5b60006001820161164757611647611569565b5060010190565b600181811c9082168061166257607f821691505b60208210810361168257634e487b7160e01b600052602260045260246000fd5b50919050565b634e487b7160e01b600052603160045260246000fdfea26469706673582212200b63679dbb7d6a82d94b8a865e692553f040f530827ef1e558c6247e7c73c21a64736f6c63430008140033",
  "linkReferences": {},
  "deployedLinkReferences": {}
}