{
  "_format": "hh-sol-artifact-1",
  "contractName": "Token",
  "sourceName": "contracts/token.sol",
  "abi": [
    {
      "inputs": [],
      "stateMutability": "nonpayable",
      "type": "constructor"
    },
    {
      "inputs": [
        {
          "internalType": "address",
          "name": "spender",
          "type": "address"
        },
        {
          "internalType": "uint256",
          "name": "allowance",
          "type": "uint256"
        },
        {
          "internalType": "uint256",
          "name": "needed",
          "type": "uint256"
        }
      ],
      "name": "ERC20InsufficientAllowance",
      "type": "error"
    },
    {
      "inputs": [
        {
          "internalType": "address",
          "name": "sender",
          "type": "address"
        },
        {
          "internalType": "uint256",
          "name": "balance",
          "type": "uint256"
        },
        {
          "internalType": "uint256",
          "name": "needed",
          "type": "uint256"
        }
      ],
      "name": "ERC20InsufficientBalance",
      "type": "error"
    },
    {
      "inputs": [
        {
          "internalType": "address",
          "name": "approver",
          "type": "address"
        }
      ],
      "name": "ERC20InvalidApprover",
      "type": "error"
    },
    {
      "inputs": [
        {
          "internalType": "address",
          "name": "receiver",
          "type": "address"
        }
      ],
      "name": "ERC20InvalidReceiver",
      "type": "error"
    },
    {
      "inputs": [
        {
          "internalType": "address",
          "name": "sender",
          "type": "address"
        }
      ],
      "name": "ERC20InvalidSender",
      "type": "error"
    },
    {
      "inputs": [
        {
          "internalType": "address",
          "name": "spender",
          "type": "address"
        }
      ],
      "name": "ERC20InvalidSpender",
      "type": "error"
    },
    {
      "inputs": [
        {
          "internalType": "address",
          "name": "owner",
          "type": "address"
        }
      ],
      "name": "OwnableInvalidOwner",
      "type": "error"
    },
    {
      "inputs": [
        {
          "internalType": "address",
          "name": "account",
          "type": "address"
        }
      ],
      "name": "OwnableUnauthorizedAccount",
      "type": "error"
    },
    {
      "anonymous": false,
      "inputs": [
        {
          "indexed": true,
          "internalType": "address",
          "name": "owner",
          "type": "address"
        },
        {
          "indexed": true,
          "internalType": "address",
          "name": "spender",
          "type": "address"
        },
        {
          "indexed": false,
          "internalType": "uint256",
          "name": "value",
          "type": "uint256"
        }
      ],
      "name": "Approval",
      "type": "event"
    },
    {
      "anonymous": false,
      "inputs": [
        {
          "indexed": true,
          "internalType": "address",
          "name": "previousOwner",
          "type": "address"
        },
        {
          "indexed": true,
          "internalType": "address",
          "name": "newOwner",
          "type": "address"
        }
      ],
      "name": "OwnershipTransferred",
      "type": "event"
    },
    {
      "anonymous": false,
      "inputs": [
        {
          "indexed": true,
          "internalType": "address",
          "name": "from",
          "type": "address"
        },
        {
          "indexed": true,
          "internalType": "address",
          "name": "to",
          "type": "address"
        },
        {
          "indexed": false,
          "internalType": "uint256",
          "name": "value",
          "type": "uint256"
        }
      ],
      "name": "Transfer",
      "type": "event"
    },
    {
      "inputs": [
        {
          "internalType": "address",
          "name": "owner",
          "type": "address"
        },
        {
          "internalType": "address",
          "name": "spender",
          "type": "address"
        }
      ],
      "name": "allowance",
      "outputs": [
        {
          "internalType": "uint256",
          "name": "",
          "type": "uint256"
        }
      ],
      "stateMutability": "view",
      "type": "function"
    },
    {
      "inputs": [
        {
          "internalType": "address",
          "name": "spender",
          "type": "address"
        },
        {
          "internalType": "uint256",
          "name": "value",
          "type": "uint256"
        }
      ],
      "name": "approve",
      "outputs": [
        {
          "internalType": "bool",
          "name": "",
          "type": "bool"
        }
      ],
      "stateMutability": "nonpayable",
      "type": "function"
    },
    {
      "inputs": [
        {
          "internalType": "address",
          "name": "account",
          "type": "address"
        }
      ],
      "name": "balanceOf",
      "outputs": [
        {
          "internalType": "uint256",
          "name": "",
          "type": "uint256"
        }
      ],
      "stateMutability": "view",
      "type": "function"
    },
    {
      "inputs": [],
      "name": "decimals",
      "outputs": [
        {
          "internalType": "uint8",
          "name": "",
          "type": "uint8"
        }
      ],
      "stateMutability": "view",
      "type": "function"
    },
    {
      "inputs": [],
      "name": "disable_mint",
      "outputs": [],
      "stateMutability": "nonpayable",
      "type": "function"
    },
    {
      "inputs": [
        {
          "internalType": "uint256",
          "name": "amount",
          "type": "uint256"
        }
      ],
      "name": "mint",
      "outputs": [],
      "stateMutability": "nonpayable",
      "type": "function"
    },
    {
      "inputs": [],
      "name": "name",
      "outputs": [
        {
          "internalType": "string",
          "name": "",
          "type": "string"
        }
      ],
      "stateMutability": "view",
      "type": "function"
    },
    {
      "inputs": [],
      "name": "owner",
      "outputs": [
        {
          "internalType": "address",
          "name": "",
          "type": "address"
        }
      ],
      "stateMutability": "view",
      "type": "function"
    },
    {
      "inputs": [],
      "name": "renounceOwnership",
      "outputs": [],
      "stateMutability": "nonpayable",
      "type": "function"
    },
    {
      "inputs": [],
      "name": "symbol",
      "outputs": [
        {
          "internalType": "string",
          "name": "",
          "type": "string"
        }
      ],
      "stateMutability": "view",
      "type": "function"
    },
    {
      "inputs": [],
      "name": "totalSupply",
      "outputs": [
        {
          "internalType": "uint256",
          "name": "",
          "type": "uint256"
        }
      ],
      "stateMutability": "view",
      "type": "function"
    },
    {
      "inputs": [
        {
          "internalType": "address",
          "name": "to",
          "type": "address"
        },
        {
          "internalType": "uint256",
          "name": "value",
          "type": "uint256"
        }
      ],
      "name": "transfer",
      "outputs": [
        {
          "internalType": "bool",
          "name": "",
          "type": "bool"
        }
      ],
      "stateMutability": "nonpayable",
      "type": "function"
    },
    {
      "inputs": [
        {
          "internalType": "address",
          "name": "from",
          "type": "address"
        },
        {
          "internalType": "address",
          "name": "to",
          "type": "address"
        },
        {
          "internalType": "uint256",
          "name": "value",
          "type": "uint256"
        }
      ],
      "name": "transferFrom",
      "outputs": [
        {
          "internalType": "bool",
          "name": "",
          "type": "bool"
        }
      ],
      "stateMutability": "nonpayable",
      "type": "function"
    },
    {
      "inputs": [
        {
          "internalType": "address",
          "name": "newOwner",
          "type": "address"
        }
      ],
      "name": "transferOwnership",
      "outputs": [],
      "stateMutability": "nonpayable",
      "type": "function"
    }
  ],
  "bytecode": "0x60806040526006805460ff191690553480156200001b57600080fd5b50604080518082018252600b81526a29b4b6b836329025b7b4b760a91b60208083019190915282518084019093526002835261534b60f01b908301529033806200007f57604051631e4fbdf760e01b81526000600482015260240160405180910390fd5b6200008a81620000b1565b506004620000998382620001a6565b506005620000a88282620001a6565b50505062000272565b600080546001600160a01b038381166001600160a01b0319831681178455604051919092169283917f8be0079c531659141344cd1fd0a4f28419497f9722a3daafe3b4186f6b6457e09190a35050565b634e487b7160e01b600052604160045260246000fd5b600181811c908216806200012c57607f821691505b6020821081036200014d57634e487b7160e01b600052602260045260246000fd5b50919050565b601f821115620001a157600081815260208120601f850160051c810160208610156200017c5750805b601f850160051c820191505b818110156200019d5782815560010162000188565b5050505b505050565b81516001600160401b03811115620001c257620001c262000101565b620001da81620001d3845462000117565b8462000153565b602080601f831160018114620002125760008415620001f95750858301515b600019600386901b1c1916600185901b1785556200019d565b600085815260208120601f198616915b82811015620002435788860151825594840194600190910190840162000222565b5085821015620002625787850151600019600388901b60f8161c191681555b5050505050600190811b01905550565b6109b280620002826000396000f3fe608060405234801561001057600080fd5b50600436106100ea5760003560e01c80638da5cb5b1161008c578063a8b7818d11610066578063a8b7818d146101cd578063a9059cbb146101d5578063dd62ed3e146101e8578063f2fde38b1461022157600080fd5b80638da5cb5b1461019757806395d89b41146101b2578063a0712d68146101ba57600080fd5b806323b872dd116100c857806323b872dd14610142578063313ce5671461015557806370a0823114610164578063715018a61461018d57600080fd5b806306fdde03146100ef578063095ea7b31461010d57806318160ddd14610130575b600080fd5b6100f7610234565b60405161010491906107e3565b60405180910390f35b61012061011b36600461084d565b6102c6565b6040519015158152602001610104565b6003545b604051908152602001610104565b610120610150366004610877565b6102e0565b60405160128152602001610104565b6101346101723660046108b3565b6001600160a01b031660009081526001602052604090205490565b610195610304565b005b6000546040516001600160a01b039091168152602001610104565b6100f7610318565b6101956101c83660046108d5565b610327565b61019561038b565b6101206101e336600461084d565b6103f5565b6101346101f63660046108ee565b6001600160a01b03918216600090815260026020908152604080832093909416825291909152205490565b61019561022f3660046108b3565b610403565b60606004805461024390610921565b80601f016020809104026020016040519081016040528092919081815260200182805461026f90610921565b80156102bc5780601f10610291576101008083540402835291602001916102bc565b820191906000526020600020905b81548152906001019060200180831161029f57829003601f168201915b5050505050905090565b6000336102d481858561043e565b60019150505b92915050565b6000336102ee858285610450565b6102f98585856104ce565b506001949350505050565b61030c61052d565b610316600061055a565b565b60606005805461024390610921565b61032f61052d565b60065460ff161561037e5760405162461bcd60e51b815260206004820152601460248201527343616e206e6f74206d696e7420616e796d6f726560601b60448201526064015b60405180910390fd5b61038833826105aa565b50565b61039361052d565b60065460ff16156103e65760405162461bcd60e51b815260206004820152601760248201527f43616e206e6f742064697361626c6520616e796d6f72650000000000000000006044820152606401610375565b6006805460ff19166001179055565b6000336102d48185856104ce565b61040b61052d565b6001600160a01b03811661043557604051631e4fbdf760e01b815260006004820152602401610375565b6103888161055a565b61044b83838360016105e4565b505050565b6001600160a01b0383811660009081526002602090815260408083209386168352929052205460001981146104c857818110156104b957604051637dc7a0d960e11b81526001600160a01b03841660048201526024810182905260448101839052606401610375565b6104c8848484840360006105e4565b50505050565b6001600160a01b0383166104f857604051634b637e8f60e11b815260006004820152602401610375565b6001600160a01b0382166105225760405163ec442f0560e01b815260006004820152602401610375565b61044b8383836106b9565b6000546001600160a01b031633146103165760405163118cdaa760e01b8152336004820152602401610375565b600080546001600160a01b038381166001600160a01b0319831681178455604051919092169283917f8be0079c531659141344cd1fd0a4f28419497f9722a3daafe3b4186f6b6457e09190a35050565b6001600160a01b0382166105d45760405163ec442f0560e01b815260006004820152602401610375565b6105e0600083836106b9565b5050565b6001600160a01b03841661060e5760405163e602df0560e01b815260006004820152602401610375565b6001600160a01b03831661063857604051634a1406b160e11b815260006004820152602401610375565b6001600160a01b03808516600090815260026020908152604080832093871683529290522082905580156104c857826001600160a01b0316846001600160a01b03167f8c5be1e5ebec7d5bd14f71427d1e84f3dd0314c0f7b2291e5b200ac8c7c3b925846040516106ab91815260200190565b60405180910390a350505050565b6001600160a01b0383166106e45780600360008282546106d9919061095b565b909155506107569050565b6001600160a01b038316600090815260016020526040902054818110156107375760405163391434e360e21b81526001600160a01b03851660048201526024810182905260448101839052606401610375565b6001600160a01b03841660009081526001602052604090209082900390555b6001600160a01b03821661077257600380548290039055610791565b6001600160a01b03821660009081526001602052604090208054820190555b816001600160a01b0316836001600160a01b03167fddf252ad1be2c89b69c2b068fc378daa952ba7f163c4a11628f55a4df523b3ef836040516107d691815260200190565b60405180910390a3505050565b600060208083528351808285015260005b81811015610810578581018301518582016040015282016107f4565b506000604082860101526040601f19601f8301168501019250505092915050565b80356001600160a01b038116811461084857600080fd5b919050565b6000806040838503121561086057600080fd5b61086983610831565b946020939093013593505050565b60008060006060848603121561088c57600080fd5b61089584610831565b92506108a360208501610831565b9150604084013590509250925092565b6000602082840312156108c557600080fd5b6108ce82610831565b9392505050565b6000602082840312156108e757600080fd5b5035919050565b6000806040838503121561090157600080fd5b61090a83610831565b915061091860208401610831565b90509250929050565b600181811c9082168061093557607f821691505b60208210810361095557634e487b7160e01b600052602260045260246000fd5b50919050565b808201808211156102da57634e487b7160e01b600052601160045260246000fdfea2646970667358221220ecb01939662cdb1efc81f93803b65dd56e2b62c19e8b073a63a33632d25c575e64736f6c63430008140033",
  "linkReferences": {},
  "deployedLinkReferences": {}
}